{
  "contractName": "FactoryERC1155",
  "abi": [
    {
      "anonymous": false,
      "inputs": [
        {
          "indexed": false,
          "internalType": "address",
          "name": "owner",
          "type": "address"
        },
        {
          "indexed": false,
          "internalType": "address",
          "name": "tokenContract",
          "type": "address"
        }
      ],
      "name": "ERC1155Created",
      "type": "event"
    },
    {
      "anonymous": false,
      "inputs": [
        {
          "indexed": false,
          "internalType": "address",
          "name": "owner",
          "type": "address"
        },
        {
          "indexed": false,
          "internalType": "address",
          "name": "tokenContract",
          "type": "address"
        },
        {
          "indexed": false,
          "internalType": "uint256",
          "name": "amount",
          "type": "uint256"
        }
      ],
      "name": "ERC1155Minted",
      "type": "event"
    },
    {
      "inputs": [
        {
          "internalType": "uint256",
          "name": "",
          "type": "uint256"
        }
      ],
      "name": "indexToContract",
      "outputs": [
        {
          "internalType": "address",
          "name": "",
          "type": "address"
        }
      ],
      "stateMutability": "view",
      "type": "function"
    },
    {
      "inputs": [
        {
          "internalType": "uint256",
          "name": "",
          "type": "uint256"
        }
      ],
      "name": "indexToOwner",
      "outputs": [
        {
          "internalType": "address",
          "name": "",
          "type": "address"
        }
      ],
      "stateMutability": "view",
      "type": "function"
    },
    {
      "inputs": [
        {
          "internalType": "uint256",
          "name": "",
          "type": "uint256"
        }
      ],
      "name": "tokens",
      "outputs": [
        {
          "internalType": "contract ERC1155Token",
          "name": "",
          "type": "address"
        }
      ],
      "stateMutability": "view",
      "type": "function"
    },
    {
      "inputs": [
        {
          "internalType": "string",
          "name": "_contractName",
          "type": "string"
        },
        {
          "internalType": "string",
          "name": "_uri",
          "type": "string"
        }
      ],
      "name": "deployERC1155",
      "outputs": [
        {
          "internalType": "address",
          "name": "",
          "type": "address"
        }
      ],
      "stateMutability": "nonpayable",
      "type": "function"
    },
    {
      "inputs": [
        {
          "internalType": "uint256",
          "name": "_index",
          "type": "uint256"
        },
        {
          "internalType": "address",
          "name": "towallet",
          "type": "address"
        },
        {
          "internalType": "uint256",
          "name": "tokenid",
          "type": "uint256"
        },
        {
          "internalType": "uint256",
          "name": "amount",
          "type": "uint256"
        }
      ],
      "name": "mintERC1155",
      "outputs": [],
      "stateMutability": "nonpayable",
      "type": "function"
    },
    {
      "inputs": [
        {
          "internalType": "uint256",
          "name": "_index",
          "type": "uint256"
        },
        {
          "internalType": "uint256",
          "name": "_id",
          "type": "uint256"
        }
      ],
      "name": "getCountERC1155byIndex",
      "outputs": [
        {
          "internalType": "uint256",
          "name": "amount",
          "type": "uint256"
        }
      ],
      "stateMutability": "view",
      "type": "function"
    },
    {
      "inputs": [
        {
          "internalType": "uint256",
          "name": "_index",
          "type": "uint256"
        },
        {
          "internalType": "string",
          "name": "_name",
          "type": "string"
        }
      ],
      "name": "getCountERC1155byName",
      "outputs": [
        {
          "internalType": "uint256",
          "name": "amount",
          "type": "uint256"
        }
      ],
      "stateMutability": "view",
      "type": "function"
    },
    {
      "inputs": [
        {
          "internalType": "uint256",
          "name": "_index",
          "type": "uint256"
        },
        {
          "internalType": "string",
          "name": "_name",
          "type": "string"
        }
      ],
      "name": "getIdByName",
      "outputs": [
        {
          "internalType": "uint256",
          "name": "",
          "type": "uint256"
        }
      ],
      "stateMutability": "view",
      "type": "function"
    },
    {
      "inputs": [
        {
          "internalType": "uint256",
          "name": "_index",
          "type": "uint256"
        },
        {
          "internalType": "uint256",
          "name": "_id",
          "type": "uint256"
        }
      ],
      "name": "getNameById",
      "outputs": [
        {
          "internalType": "string",
          "name": "",
          "type": "string"
        }
      ],
      "stateMutability": "view",
      "type": "function"
    },
    {
      "inputs": [
        {
          "internalType": "uint256",
          "name": "_index",
          "type": "uint256"
        },
        {
          "internalType": "uint256",
          "name": "_id",
          "type": "uint256"
        }
      ],
      "name": "getERC1155byIndexAndId",
      "outputs": [
        {
          "internalType": "address",
          "name": "_contract",
          "type": "address"
        },
        {
          "internalType": "address",
          "name": "_owner",
          "type": "address"
        },
        {
          "internalType": "string",
          "name": "_uri",
          "type": "string"
        },
        {
          "internalType": "uint256",
          "name": "supply",
          "type": "uint256"
        }
      ],
      "stateMutability": "view",
      "type": "function"
    },
    {
      "inputs": [
        {
          "internalType": "uint256",
          "name": "_index",
          "type": "uint256"
        },
        {
          "internalType": "uint256",
          "name": "_id",
          "type": "uint256"
        },
        {
          "internalType": "address",
          "name": "fromaddress",
          "type": "address"
        },
        {
          "internalType": "address",
          "name": "toaddress",
          "type": "address"
        },
        {
          "internalType": "uint256",
          "name": "amount",
          "type": "uint256"
        }
      ],
      "name": "getTransferForm",
      "outputs": [],
      "stateMutability": "nonpayable",
      "type": "function"
    }
  ],
  "bytecode": "0x608060405234801561001057600080fd5b50613397806100206000396000f3fe60806040523480156200001157600080fd5b5060043610620000b75760003560e01c80636d68b424116200007a5780636d68b424146200015d5780638874468214620001745780639575feab146200019d578063ba535b8e14620001c3578063cd78aefb14620001ef578063f0752399146200021b57600080fd5b806316d839e314620000bc578063344e401214620000e65780634f64b2be146200011657806351c8027b146200012d5780635ff3cecf1462000144575b600080fd5b620000d3620000cd36600462000db0565b62000232565b6040519081526020015b60405180910390f35b620000fd620000f736600462000c1c565b620002fc565b6040516001600160a01b039091168152602001620000dd565b620000fd6200012736600462000c84565b62000455565b620000d36200013e36600462000cf5565b62000480565b6200015b6200015536600462000dd2565b62000591565b005b6200015b6200016e36600462000cb6565b6200064c565b6200018b6200018536600462000db0565b62000832565b604051620000dd949392919062000e56565b620001b4620001ae36600462000db0565b62000a16565b604051620000dd919062000e95565b620000fd620001d436600462000c84565b6001602052600090815260409020546001600160a01b031681565b620000fd6200020036600462000c84565b6002602052600090815260409020546001600160a01b031681565b620000d36200022c36600462000d71565b62000ac7565b60008083815481106200025557634e487b7160e01b600052603260045260246000fd5b6000918252602080832091909101548583526002909152604091829020549151627eeac760e11b81526001600160a01b0392831660048201526024810185905291169062fdd58e906044015b60206040518083038186803b158015620002ba57600080fd5b505afa158015620002cf573d6000803e3d6000fd5b505050506040513d601f19601f82011682018060405250810190620002f5919062000c9d565b9392505050565b60008083836040516200030f9062000b25565b6200031c92919062000eaa565b604051809103906000f08015801562000339573d6000803e3d6000fd5b5060008054600180820183558280527f290decd9548b62a8d60345a988386fc84ba6bc95484008f6362f93160ef3e56390910180546001600160a01b0319166001600160a01b038516179055815492935083929091906200039c90839062000f32565b815260200190815260200160002060006101000a8154816001600160a01b0302191690836001600160a01b0316021790555032600260006001600080549050620003e7919062000f32565b8152602080820192909252604090810160002080546001600160a01b0319166001600160a01b039485161790558051338152928416918301919091527f7192d7c1a7c7914e1e82105dd5dcd5bdf88dc7eb0c2899d498664be8f0e406c5910160405180910390a19392505050565b600081815481106200046657600080fd5b6000918252602090912001546001600160a01b0316905081565b600080620004c58585858080601f01602080910402602001604051908101604052809392919081815260200183838082843760009201919091525062000ac792505050565b905060008581548110620004e957634e487b7160e01b600052603260045260246000fd5b6000918252602080832091909101548783526002909152604091829020549151627eeac760e11b81526001600160a01b0392831660048201526024810184905291169062fdd58e9060440160206040518083038186803b1580156200054d57600080fd5b505afa15801562000562573d6000803e3d6000fd5b505050506040513d601f19601f8201168201806040525081019062000588919062000c9d565b95945050505050565b6000808681548110620005b457634e487b7160e01b600052603260045260246000fd5b6000918252602082200154604051637921219560e11b81526001600160a01b0387811660048301528681166024830152604482018990526064820186905260a0608483015260a482019390935291169150819063f242432a9060c401600060405180830381600087803b1580156200062b57600080fd5b505af115801562000640573d6000803e3d6000fd5b50505050505050505050565b600084815481106200066e57634e487b7160e01b600052603260045260246000fd5b600091825260209091200154604051630ab714fb60e11b81526001600160a01b03858116600483015260248201859052604482018490529091169063156e29f690606401602060405180830381600087803b158015620006cd57600080fd5b505af1158015620006e2573d6000803e3d6000fd5b505050506040513d601f19601f8201168201806040525081019062000708919062000c9d565b507fe5935135c7f13720ede40cad8697b3295d1715ca8c2365a7aeefb65338ef2348600085815481106200074c57634e487b7160e01b600052603260045260246000fd5b6000918252602091829020015460408051638da5cb5b60e01b815290516001600160a01b0390921692638da5cb5b92600480840193829003018186803b1580156200079657600080fd5b505afa158015620007ab573d6000803e3d6000fd5b505050506040513d601f19601f82011682018060405250810190620007d1919062000b8a565b60008681548110620007f357634e487b7160e01b600052603260045260246000fd5b60009182526020918290200154604080516001600160a01b0394851681529390911691830191909152810183905260600160405180910390a150505050565b6000806060600080600087815481106200085c57634e487b7160e01b600052603260045260246000fd5b9060005260206000200160009054906101000a90046001600160a01b0316905080816001600160a01b0316638da5cb5b6040518163ffffffff1660e01b815260040160206040518083038186803b158015620008b757600080fd5b505afa158015620008cc573d6000803e3d6000fd5b505050506040513d601f19601f82011682018060405250810190620008f2919062000b8a565b6040516303a24d0760e21b8152600481018990526001600160a01b03841690630e89341c9060240160006040518083038186803b1580156200093357600080fd5b505afa15801562000948573d6000803e3d6000fd5b505050506040513d6000823e601f3d908101601f1916820160405262000972919081019062000ba9565b60008a81526002602052604090819020549051627eeac760e11b81526001600160a01b039182166004820152602481018b90529085169062fdd58e9060440160206040518083038186803b158015620009ca57600080fd5b505afa158015620009df573d6000803e3d6000fd5b505050506040513d601f19601f8201168201806040525081019062000a05919062000c9d565b929a91995097509095509350505050565b60606000838154811062000a3a57634e487b7160e01b600052603260045260246000fd5b60009182526020909120015460405163364410b360e01b8152600481018490526001600160a01b039091169063364410b39060240160006040518083038186803b15801562000a8857600080fd5b505afa15801562000a9d573d6000803e3d6000fd5b505050506040513d6000823e601f3d908101601f19168201604052620002f5919081019062000ba9565b600080838154811062000aea57634e487b7160e01b600052603260045260246000fd5b60009182526020909120015460405163f6d8f2cb60e01b81526001600160a01b039091169063f6d8f2cb90620002a190859060040162000e95565b6123a98062000fb983390190565b600082601f83011262000b44578081fd5b813562000b5b62000b558262000f07565b62000ed3565b81815284602083860101111562000b70578283fd5b816020850160208301379081016020019190915292915050565b60006020828403121562000b9c578081fd5b8151620002f58162000f9f565b60006020828403121562000bbb578081fd5b815167ffffffffffffffff81111562000bd2578182fd5b8201601f8101841362000be3578182fd5b805162000bf462000b558262000f07565b81815285602083850101111562000c09578384fd5b6200058882602083016020860162000f56565b6000806040838503121562000c2f578081fd5b823567ffffffffffffffff8082111562000c47578283fd5b62000c558683870162000b33565b9350602085013591508082111562000c6b578283fd5b5062000c7a8582860162000b33565b9150509250929050565b60006020828403121562000c96578081fd5b5035919050565b60006020828403121562000caf578081fd5b5051919050565b6000806000806080858703121562000ccc578182fd5b84359350602085013562000ce08162000f9f565b93969395505050506040820135916060013590565b60008060006040848603121562000d0a578283fd5b83359250602084013567ffffffffffffffff8082111562000d29578384fd5b818601915086601f83011262000d3d578384fd5b81358181111562000d4c578485fd5b87602082850101111562000d5e578485fd5b6020830194508093505050509250925092565b6000806040838503121562000d84578182fd5b82359150602083013567ffffffffffffffff81111562000da2578182fd5b62000c7a8582860162000b33565b6000806040838503121562000dc3578182fd5b50508035926020909101359150565b600080600080600060a0868803121562000dea578081fd5b8535945060208601359350604086013562000e058162000f9f565b9250606086013562000e178162000f9f565b949793965091946080013592915050565b6000815180845262000e4281602086016020860162000f56565b601f01601f19169290920160200192915050565b6001600160a01b0385811682528416602082015260806040820181905260009062000e849083018562000e28565b905082606083015295945050505050565b602081526000620002f5602083018462000e28565b60408152600062000ebf604083018562000e28565b828103602084015262000588818562000e28565b604051601f8201601f1916810167ffffffffffffffff8111828210171562000eff5762000eff62000f89565b604052919050565b600067ffffffffffffffff82111562000f245762000f2462000f89565b50601f01601f191660200190565b60008282101562000f5157634e487b7160e01b81526011600452602481fd5b500390565b60005b8381101562000f7357818101518382015260200162000f59565b8381111562000f83576000848401525b50505050565b634e487b7160e01b600052604160045260246000fd5b6001600160a01b038116811462000fb557600080fd5b5056fe608060405260006008553480156200001657600080fd5b50604051620023a9380380620023a9833981016040819052620000399162000355565b8062000045816200009b565b506200005133620000b4565b6200005c8162000106565b805162000071906006906020840190620001fc565b50815162000087906007906020850190620001fc565b5062000093326200011e565b50506200040f565b8051620000b0906002906020840190620001fc565b5050565b600380546001600160a01b038381166001600160a01b0319831681179093556040519116919082907f8be0079c531659141344cd1fd0a4f28419497f9722a3daafe3b4186f6b6457e090600090a35050565b620001106200019e565b6200011b816200009b565b50565b620001286200019e565b6001600160a01b038116620001935760405162461bcd60e51b815260206004820152602660248201527f4f776e61626c653a206e6577206f776e657220697320746865207a65726f206160448201526564647265737360d01b60648201526084015b60405180910390fd5b6200011b81620000b4565b6003546001600160a01b03163314620001fa5760405162461bcd60e51b815260206004820181905260248201527f4f776e61626c653a2063616c6c6572206973206e6f7420746865206f776e657260448201526064016200018a565b565b8280546200020a90620003bc565b90600052602060002090601f0160209004810192826200022e576000855562000279565b82601f106200024957805160ff191683800117855562000279565b8280016001018555821562000279579182015b82811115620002795782518255916020019190600101906200025c565b50620002879291506200028b565b5090565b5b808211156200028757600081556001016200028c565b600082601f830112620002b3578081fd5b81516001600160401b0380821115620002d057620002d0620003f9565b604051601f8301601f19908116603f01168101908282118183101715620002fb57620002fb620003f9565b8160405283815260209250868385880101111562000317578485fd5b8491505b838210156200033a57858201830151818301840152908201906200031b565b838211156200034b57848385830101525b9695505050505050565b6000806040838503121562000368578182fd5b82516001600160401b03808211156200037f578384fd5b6200038d86838701620002a2565b93506020850151915080821115620003a3578283fd5b50620003b285828601620002a2565b9150509250929050565b600181811c90821680620003d157607f821691505b60208210811415620003f357634e487b7160e01b600052602260045260246000fd5b50919050565b634e487b7160e01b600052604160045260246000fd5b611f8a806200041f6000396000f3fe6080604052600436106101345760003560e01c80634e1273f4116100ab578063a22cb4651161006f578063a22cb46514610348578063e985e9c514610368578063f242432a146103b1578063f2fde38b146103d1578063f6d8f2cb146103f1578063fac333ac1461042957600080fd5b80634e1273f4146102a95780635b2bd79e146102d657806369fe0e2d146102eb578063715018a61461030b5780638da5cb5b1461032057600080fd5b806313966db5116100fd57806313966db514610200578063156e29f6146102165780631f7fdffa146102295780632eb2c2d614610249578063364410b3146102695780634622ab031461028957600080fd5b8062fdd58e1461013957806301ffc9a71461016c57806302fe53051461019c57806306fdde03146101be5780630e89341c146101e0575b600080fd5b34801561014557600080fd5b5061015961015436600461179b565b610449565b6040519081526020015b60405180910390f35b34801561017857600080fd5b5061018c6101873660046118c1565b6104df565b6040519015158152602001610163565b3480156101a857600080fd5b506101bc6101b73660046118f9565b610531565b005b3480156101ca57600080fd5b506101d3610545565b6040516101639190611b6e565b3480156101ec57600080fd5b506101d36101fb36600461193f565b6105d3565b34801561020c57600080fd5b5061015960085481565b6101596102243660046117c4565b610607565b34801561023557600080fd5b506101bc6102443660046116cc565b61063a565b34801561025557600080fd5b506101bc6102643660046115c3565b61064c565b34801561027557600080fd5b506101d361028436600461193f565b610698565b34801561029557600080fd5b506101d36102a436600461193f565b6106b1565b3480156102b557600080fd5b506102c96102c43660046117f6565b6106dc565b6040516101639190611b36565b3480156102e257600080fd5b506101d361083e565b3480156102f757600080fd5b506101bc61030636600461193f565b61084b565b34801561031757600080fd5b506101bc610858565b34801561032c57600080fd5b506003546040516001600160a01b039091168152602001610163565b34801561035457600080fd5b506101bc610363366004611761565b61086c565b34801561037457600080fd5b5061018c610383366004611591565b6001600160a01b03918216600090815260016020908152604080832093909416825291909152205460ff1690565b3480156103bd57600080fd5b506101bc6103cc366004611669565b61087b565b3480156103dd57600080fd5b506101bc6103ec366004611577565b6108c0565b3480156103fd57600080fd5b5061015961040c3660046118f9565b805160208183018101805160098252928201919093012091525481565b34801561043557600080fd5b5061015961044436600461193f565b610936565b60006001600160a01b0383166104b95760405162461bcd60e51b815260206004820152602a60248201527f455243313135353a2061646472657373207a65726f206973206e6f742061207660448201526930b634b21037bbb732b960b11b60648201526084015b60405180910390fd5b506000908152602081815260408083206001600160a01b03949094168352929052205490565b60006001600160e01b03198216636cdb3d1360e11b148061051057506001600160e01b031982166303a24d0760e21b145b8061052b57506301ffc9a760e01b6001600160e01b03198316145b92915050565b610539610957565b610542816109b1565b50565b6007805461055290611dc3565b80601f016020809104026020016040519081016040528092919081815260200182805461057e90611dc3565b80156105cb5780601f106105a0576101008083540402835291602001916105cb565b820191906000526020600020905b8154815290600101906020018083116105ae57829003601f168201915b505050505081565b606060066105e0836109c4565b6040516020016105f19291906119d9565b6040516020818303038152906040529050919050565b6000600854341461061757600080fd5b61063284848460405180602001604052806000815250610ae6565b509092915050565b61064684848484610bc0565b50505050565b6001600160a01b03851633148061066857506106688533610383565b6106845760405162461bcd60e51b81526004016104b090611b81565b6106918585858585610d27565b5050505050565b600a602052600090815260409020805461055290611dc3565b600481815481106106c157600080fd5b90600052602060002001600091509050805461055290611dc3565b606081518351146107415760405162461bcd60e51b815260206004820152602960248201527f455243313135353a206163636f756e747320616e6420696473206c656e677468604482015268040dad2e6dac2e8c6d60bb1b60648201526084016104b0565b6000835167ffffffffffffffff81111561076b57634e487b7160e01b600052604160045260246000fd5b604051908082528060200260200182016040528015610794578160200160208202803683370190505b50905060005b8451811015610836576107fb8582815181106107c657634e487b7160e01b600052603260045260246000fd5b60200260200101518583815181106107ee57634e487b7160e01b600052603260045260246000fd5b6020026020010151610449565b82828151811061081b57634e487b7160e01b600052603260045260246000fd5b602090810291909101015261082f81611e2b565b905061079a565b509392505050565b6006805461055290611dc3565b610853610957565b600855565b610860610957565b61086a6000610edf565b565b610877338383610f31565b5050565b6001600160a01b03851633148061089757506108978533610383565b6108b35760405162461bcd60e51b81526004016104b090611b81565b6106918585858585611012565b6108c8610957565b6001600160a01b03811661092d5760405162461bcd60e51b815260206004820152602660248201527f4f776e61626c653a206e6577206f776e657220697320746865207a65726f206160448201526564647265737360d01b60648201526084016104b0565b61054281610edf565b6005818154811061094657600080fd5b600091825260209091200154905081565b6003546001600160a01b0316331461086a5760405162461bcd60e51b815260206004820181905260248201527f4f776e61626c653a2063616c6c6572206973206e6f7420746865206f776e657260448201526064016104b0565b80516108779060029060208401906113ca565b6060816109e85750506040805180820190915260018152600360fc1b602082015290565b8160005b8115610a1257806109fc81611e2b565b9150610a0b9050600a83611d6c565b91506109ec565b60008167ffffffffffffffff811115610a3b57634e487b7160e01b600052604160045260246000fd5b6040519080825280601f01601f191660200182016040528015610a65576020820181803683370190505b5090505b8415610ade57610a7a600183611d80565b9150610a87600a86611e46565b610a92906030611d54565b60f81b818381518110610ab557634e487b7160e01b600052603260045260246000fd5b60200101906001600160f81b031916908160001a905350610ad7600a86611d6c565b9450610a69565b949350505050565b6001600160a01b038416610b0c5760405162461bcd60e51b81526004016104b090611cef565b336000610b188561113c565b90506000610b258561113c565b90506000868152602081815260408083206001600160a01b038b16845290915281208054879290610b57908490611d54565b909155505060408051878152602081018790526001600160a01b03808a1692600092918716917fc3d58168c5ae7397731d063d5bbf3d657854427343f4c083240f7aacaa2d0f62910160405180910390a4610bb783600089898989611195565b50505050505050565b6001600160a01b038416610be65760405162461bcd60e51b81526004016104b090611cef565b8151835114610c075760405162461bcd60e51b81526004016104b090611ca7565b3360005b8451811015610cbf57838181518110610c3457634e487b7160e01b600052603260045260246000fd5b6020026020010151600080878481518110610c5f57634e487b7160e01b600052603260045260246000fd5b602002602001015181526020019081526020016000206000886001600160a01b03166001600160a01b031681526020019081526020016000206000828254610ca79190611d54565b90915550819050610cb781611e2b565b915050610c0b565b50846001600160a01b031660006001600160a01b0316826001600160a01b03167f4a39dc06d4c0dbc64b70af90fd698a233a518aa5d07e595d983b8c0526c8f7fb8787604051610d10929190611b49565b60405180910390a461069181600087878787611300565b8151835114610d485760405162461bcd60e51b81526004016104b090611ca7565b6001600160a01b038416610d6e5760405162461bcd60e51b81526004016104b090611c18565b3360005b8451811015610e71576000858281518110610d9d57634e487b7160e01b600052603260045260246000fd5b602002602001015190506000858381518110610dc957634e487b7160e01b600052603260045260246000fd5b602090810291909101810151600084815280835260408082206001600160a01b038e168352909352919091205490915081811015610e195760405162461bcd60e51b81526004016104b090611c5d565b6000838152602081815260408083206001600160a01b038e8116855292528083208585039055908b16825281208054849290610e56908490611d54565b9250508190555050505080610e6a90611e2b565b9050610d72565b50846001600160a01b0316866001600160a01b0316826001600160a01b03167f4a39dc06d4c0dbc64b70af90fd698a233a518aa5d07e595d983b8c0526c8f7fb8787604051610ec1929190611b49565b60405180910390a4610ed7818787878787611300565b505050505050565b600380546001600160a01b038381166001600160a01b0319831681179093556040519116919082907f8be0079c531659141344cd1fd0a4f28419497f9722a3daafe3b4186f6b6457e090600090a35050565b816001600160a01b0316836001600160a01b03161415610fa55760405162461bcd60e51b815260206004820152602960248201527f455243313135353a2073657474696e6720617070726f76616c20737461747573604482015268103337b91039b2b63360b91b60648201526084016104b0565b6001600160a01b03838116600081815260016020908152604080832094871680845294825291829020805460ff191686151590811790915591519182527f17307eab39ab6107e8899845ad3d59bd9653f200f220920489ca2b5937696c31910160405180910390a3505050565b6001600160a01b0384166110385760405162461bcd60e51b81526004016104b090611c18565b3360006110448561113c565b905060006110518561113c565b90506000868152602081815260408083206001600160a01b038c168452909152902054858110156110945760405162461bcd60e51b81526004016104b090611c5d565b6000878152602081815260408083206001600160a01b038d8116855292528083208985039055908a168252812080548892906110d1908490611d54565b909155505060408051888152602081018890526001600160a01b03808b16928c821692918816917fc3d58168c5ae7397731d063d5bbf3d657854427343f4c083240f7aacaa2d0f62910160405180910390a4611131848a8a8a8a8a611195565b505050505050505050565b6040805160018082528183019092526060916000919060208083019080368337019050509050828160008151811061118457634e487b7160e01b600052603260045260246000fd5b602090810291909101015292915050565b6001600160a01b0384163b15610ed75760405163f23a6e6160e01b81526001600160a01b0385169063f23a6e61906111d99089908990889088908890600401611af1565b602060405180830381600087803b1580156111f357600080fd5b505af1925050508015611223575060408051601f3d908101601f19168201909252611220918101906118dd565b60015b6112d05761122f611e9c565b806308c379a014156112695750611244611eb4565b8061124f575061126b565b8060405162461bcd60e51b81526004016104b09190611b6e565b505b60405162461bcd60e51b815260206004820152603460248201527f455243313135353a207472616e7366657220746f206e6f6e20455243313135356044820152732932b1b2b4bb32b91034b6b83632b6b2b73a32b960611b60648201526084016104b0565b6001600160e01b0319811663f23a6e6160e01b14610bb75760405162461bcd60e51b81526004016104b090611bd0565b6001600160a01b0384163b15610ed75760405163bc197c8160e01b81526001600160a01b0385169063bc197c81906113449089908990889088908890600401611a93565b602060405180830381600087803b15801561135e57600080fd5b505af192505050801561138e575060408051601f3d908101601f1916820190925261138b918101906118dd565b60015b61139a5761122f611e9c565b6001600160e01b0319811663bc197c8160e01b14610bb75760405162461bcd60e51b81526004016104b090611bd0565b8280546113d690611dc3565b90600052602060002090601f0160209004810192826113f8576000855561143e565b82601f1061141157805160ff191683800117855561143e565b8280016001018555821561143e579182015b8281111561143e578251825591602001919060010190611423565b5061144a92915061144e565b5090565b5b8082111561144a576000815560010161144f565b600067ffffffffffffffff83111561147d5761147d611e86565b604051611494601f8501601f191660200182611dfe565b8091508381528484840111156114a957600080fd5b83836020830137600060208583010152509392505050565b80356001600160a01b03811681146114d857600080fd5b919050565b600082601f8301126114ed578081fd5b813560206114fa82611d30565b6040516115078282611dfe565b8381528281019150858301600585901b87018401881015611526578586fd5b855b8581101561154457813584529284019290840190600101611528565b5090979650505050505050565b600082601f830112611561578081fd5b61157083833560208501611463565b9392505050565b600060208284031215611588578081fd5b611570826114c1565b600080604083850312156115a3578081fd5b6115ac836114c1565b91506115ba602084016114c1565b90509250929050565b600080600080600060a086880312156115da578081fd5b6115e3866114c1565b94506115f1602087016114c1565b9350604086013567ffffffffffffffff8082111561160d578283fd5b61161989838a016114dd565b9450606088013591508082111561162e578283fd5b61163a89838a016114dd565b9350608088013591508082111561164f578283fd5b5061165c88828901611551565b9150509295509295909350565b600080600080600060a08688031215611680578081fd5b611689866114c1565b9450611697602087016114c1565b93506040860135925060608601359150608086013567ffffffffffffffff8111156116c0578182fd5b61165c88828901611551565b600080600080608085870312156116e1578384fd5b6116ea856114c1565b9350602085013567ffffffffffffffff80821115611706578485fd5b611712888389016114dd565b94506040870135915080821115611727578384fd5b611733888389016114dd565b93506060870135915080821115611748578283fd5b5061175587828801611551565b91505092959194509250565b60008060408385031215611773578182fd5b61177c836114c1565b915060208301358015158114611790578182fd5b809150509250929050565b600080604083850312156117ad578182fd5b6117b6836114c1565b946020939093013593505050565b6000806000606084860312156117d8578081fd5b6117e1846114c1565b95602085013595506040909401359392505050565b60008060408385031215611808578182fd5b823567ffffffffffffffff8082111561181f578384fd5b818501915085601f830112611832578384fd5b8135602061183f82611d30565b60405161184c8282611dfe565b8381528281019150858301600585901b870184018b101561186b578889fd5b8896505b8487101561189457611880816114c1565b83526001969096019591830191830161186f565b50965050860135925050808211156118aa578283fd5b506118b7858286016114dd565b9150509250929050565b6000602082840312156118d2578081fd5b813561157081611f3e565b6000602082840312156118ee578081fd5b815161157081611f3e565b60006020828403121561190a578081fd5b813567ffffffffffffffff811115611920578182fd5b8201601f81018413611930578182fd5b610ade84823560208401611463565b600060208284031215611950578081fd5b5035919050565b6000815180845260208085019450808401835b838110156119865781518752958201959082019060010161196a565b509495945050505050565b600081518084526119a9816020860160208601611d97565b601f01601f19169290920160200192915050565b600081516119cf818560208601611d97565b9290920192915050565b600080845482600182811c9150808316806119f557607f831692505b6020808410821415611a1557634e487b7160e01b87526022600452602487fd5b818015611a295760018114611a3a57611a66565b60ff19861689528489019650611a66565b60008b815260209020885b86811015611a5e5781548b820152908501908301611a45565b505084890196505b505050505050611a8a611a7982866119bd565b64173539b7b760d91b815260050190565b95945050505050565b6001600160a01b0386811682528516602082015260a060408201819052600090611abf90830186611957565b8281036060840152611ad18186611957565b90508281036080840152611ae58185611991565b98975050505050505050565b6001600160a01b03868116825285166020820152604081018490526060810183905260a060808201819052600090611b2b90830184611991565b979650505050505050565b6020815260006115706020830184611957565b604081526000611b5c6040830185611957565b8281036020840152611a8a8185611957565b6020815260006115706020830184611991565b6020808252602f908201527f455243313135353a2063616c6c6572206973206e6f7420746f6b656e206f776e60408201526e195c881b9bdc88185c1c1c9bdd9959608a1b606082015260800190565b60208082526028908201527f455243313135353a204552433131353552656365697665722072656a656374656040820152676420746f6b656e7360c01b606082015260800190565b60208082526025908201527f455243313135353a207472616e7366657220746f20746865207a65726f206164604082015264647265737360d81b606082015260800190565b6020808252602a908201527f455243313135353a20696e73756666696369656e742062616c616e636520666f60408201526939103a3930b739b332b960b11b606082015260800190565b60208082526028908201527f455243313135353a2069647320616e6420616d6f756e7473206c656e677468206040820152670dad2e6dac2e8c6d60c31b606082015260800190565b60208082526021908201527f455243313135353a206d696e7420746f20746865207a65726f206164647265736040820152607360f81b606082015260800190565b600067ffffffffffffffff821115611d4a57611d4a611e86565b5060051b60200190565b60008219821115611d6757611d67611e5a565b500190565b600082611d7b57611d7b611e70565b500490565b600082821015611d9257611d92611e5a565b500390565b60005b83811015611db2578181015183820152602001611d9a565b838111156106465750506000910152565b600181811c90821680611dd757607f821691505b60208210811415611df857634e487b7160e01b600052602260045260246000fd5b50919050565b601f8201601f1916810167ffffffffffffffff81118282101715611e2457611e24611e86565b6040525050565b6000600019821415611e3f57611e3f611e5a565b5060010190565b600082611e5557611e55611e70565b500690565b634e487b7160e01b600052601160045260246000fd5b634e487b7160e01b600052601260045260246000fd5b634e487b7160e01b600052604160045260246000fd5b600060033d1115611eb157600481823e5160e01c5b90565b600060443d1015611ec25790565b6040516003193d81016004833e81513d67ffffffffffffffff8160248401118184111715611ef257505050505090565b8285019150815181811115611f0a5750505050505090565b843d8701016020828501011115611f245750505050505090565b611f3360208286010187611dfe565b509095945050505050565b6001600160e01b03198116811461054257600080fdfea264697066735822122041f0e014dd86ca5dd7e5150f35e6112f3d804843ddef96da4d0970d50fe71b0c64736f6c63430008040033a264697066735822122061237aa98d3dcc40b3b8cf8e97a051aa758860839f7735f00efb8b7146a1234e64736f6c63430008040033",
  "immutableReferences": {},
  "source": "pragma solidity ^0.8.4;\n\nimport \"./ERC1155Token.sol\";\n\ncontract FactoryERC1155{\n\n    ERC1155Token[] public tokens; //an array that contains different ERC1155 tokens deployed\n    mapping(uint256 => address) public indexToContract; //index to contract address mapping\n    mapping(uint256 => address) public indexToOwner; //index to ERC1155 owner address\n\n    event ERC1155Created(address owner, address tokenContract); //emitted when ERC1155 token is deployed\n    event ERC1155Minted(address owner, address tokenContract, uint amount); //emmited when ERC1155 token is minted\n\n    /*\n    deployERC1155 - deploys a ERC1155 token with given parameters - returns deployed address\n\n    _contractName - name of our ERC1155 token\n    _uri - URI resolving to our hosted metadata\n   \n    */\n    function deployERC1155(string memory _contractName, string memory _uri) public returns (address) {\n        ERC1155Token t = new ERC1155Token(_contractName, _uri);\n        tokens.push(t);\n        indexToContract[tokens.length - 1] = address(t);\n        indexToOwner[tokens.length - 1] = tx.origin;\n        emit ERC1155Created(msg.sender,address(t));\n        return address(t);\n    }\n\n    /*\n    mintERC1155 - mints a ERC1155 token with given parameters\n\n    _index - index position in our tokens array - represents which ERC1155 you want to interact with\n    _name - Case-sensitive. Name of the token (this maps to the ID you created when deploying the token)\n    _amount - amount of tokens you wish to mint\n    */\n    function mintERC1155(uint _index, address towallet, uint tokenid, uint256 amount) public {\n\n       \n        tokens[_index].mint(towallet, tokenid, amount);\n        emit ERC1155Minted(tokens[_index].owner(), address(tokens[_index]), amount);\n    }\n\n    /*\n    Helper functions below retrieve contract data given an ID or name and index in the tokens array.\n    */\n    function getCountERC1155byIndex(uint256 _index, uint256 _id) public view returns (uint amount) {\n        return tokens[_index].balanceOf(indexToOwner[_index], _id);\n    }\n    \n    function getCountERC1155byName(uint256 _index, string calldata _name) public view returns (uint amount) {\n        uint id = getIdByName(_index, _name);\n        return tokens[_index].balanceOf(indexToOwner[_index], id);\n    }\n   \n\n    function getIdByName(uint _index, string memory _name) public view returns (uint) {\n        return tokens[_index].nameToId(_name);\n    }\n\n    function getNameById(uint _index, uint _id) public view returns (string memory) {\n        return tokens[_index].idToName(_id);\n    }\n\n    function getERC1155byIndexAndId(uint _index, uint _id)\n        public\n        view\n        returns (\n            address _contract,\n            address _owner,\n            string memory _uri,\n            uint supply\n        )\n    {\n        ERC1155Token token = tokens[_index];\n        return (address(token), token.owner(), token.uri(_id), token.balanceOf(indexToOwner[_index], _id));\n    }\n\n    function getTransferForm(uint _index, uint _id, address fromaddress, address toaddress, uint256 amount) public{\n        ERC1155Token token = tokens[_index];\n        token.safeTransferFrom(fromaddress, toaddress, _id, amount,'');\n    }\n\n}",
  "sourcePath": "/Users/yh/Desktop/metaroc/contracts/FactoryERC1155.sol",
  "compiler": {
    "name": "solc",
    "version": "0.8.4+commit.c7e474f2.Emscripten.clang"
  },
  "schemaVersion": "3.4.1",
  "updatedAt": "2022-12-02T07:11:32.806Z",
  "devdoc": {
    "kind": "dev",
    "methods": {},
    "version": 1
  },
  "userdoc": {
    "kind": "user",
    "methods": {},
    "version": 1
  }
}